HTTP/1.1 200 OK
Content-ype: application/json; charset=utf-8

{
    "data": [
        {
            "confirmations": 7,
            "feeSatoshi": 16802,
            "height": 1576360,
            "inputTotalSatoshi": 49720671035,
            "outputTotalSatoshi": 49720654233,
            "timestamp": 1567083852,
            "tx": {
                "inputs": [
                    {
                        "n": 0,
                        "script": "00146920d520e95e158e1c38316928b9225589784359",
                        "sequence": 4294967294,
                        "txDetail": {
                            "n": 0,
                            "satoshi": 49720671035,
                            "scriptPubKey": {
                                "addresses": [
                                    "2Mx8bejrg4ESsAfS7E3YFCAfR7wqnfRq9kH"
                                ],
                                "asm": "OP_HASH160 3597ccf263446c1c298574489d02db046b777dce OP_EQUAL",
                                "hex": "a9143597ccf263446c1c298574489d02db046b777dce87"
                            },
                            "value": "497.20671035"
                        },
                        "txid": "4daf54b4576f06a47cb3c35818deaddf1d3da11a24c617d3b1d344883c354c22"
                    }
                ],
                "locktime": 1576359,
                "outputs": [
                    {
                        "n": 0,
                        "satoshi": 49720584233,
                        "scriptPubKey": {
                            "addresses": [
                                "2N4fUuW4R8a6JWPGtCJDVBWoyVxQDneHDkH"
                            ],
                            "asm": "OP_HASH160 7d3fd1ba39f93ec4bcab424311aadbf1c7e5eed2 OP_EQUAL",
                            "hex": "a9147d3fd1ba39f93ec4bcab424311aadbf1c7e5eed287"
                        },
                        "value": "497.20584233"
                    },
                    {
                        "n": 1,
                        "satoshi": 70000,
                        "scriptPubKey": {
                            "addresses": [
                                "2N2rvdgFkjdRsA3m4VE3pytNFDgzUn5sCXV"
                            ],
                            "asm": "OP_HASH160 69799e8520bc3046e99befb9672afbb86a86e6cb OP_EQUAL",
                            "hex": "a91469799e8520bc3046e99befb9672afbb86a86e6cb87"
                        },
                        "value": "0.00070000"
                    }
                ],
                "txid": "3241ec09ec903f19cc65b8eab6eb07681d2469607c18427b2831b42309ad9f61",
                "version": 2
            },
            "tx_raw": "02000000000101224c353c8844d3b1d317c6241aa13d1ddfadde1858c3b37ca4066f57b454af4d00000000171600146920d520e95e158e1c38316928b9225589784359feffffff0229e893930b00000017a9147d3fd1ba39f93ec4bcab424311aadbf1c7e5eed287701101000000000017a91469799e8520bc3046e99befb9672afbb86a86e6cb8702473044022028d5007eaa861ecbd740f2cea5aad91e0e398fe1b2aa52c8bb66afe74154366b02203dc9c42c9bf9cbab758f9ba3632c016b3845aae968cf3e69b5c0f1b02919ecb5012103327d79f4c0732d3ecb5759910c73e1921b077b0e7973a492ccef4585c819285ba70d1800"
        }
    ],
    "links": [],
    "meta": {
        "count": 1,
        "offset": 0,
        "total": 1
    }
}
