HTTP/1.1 200 OK
Content-ype: application/json; charset=utf-8

{
    "data": [
        {
            "block": {
                "bits": 486604799,
                "block_height": 1576360,
                "merkle_root": "c655d81f85e7e7549b76dae4edb0af585c3506fa07804d4f65161690ea597fa3",
                "nonce": 3776351708,
                "prev_block_hash": "0000000028969192da5d5b51b9eba37cb743a5c209f7b7f86a231852cea3edb5",
                "timestamp": 1567083852,
                "version": 536870912
            },
            "confirmations": 7,
            "feeSatoshi": 16802,
            "height": 1576360,
            "inputTotalSatoshi": 49720584233,
            "outputTotalSatoshi": 49720567431,
            "timestamp": 1567083852,
            "tx": {
                "inputs": [
                    {
                        "n": 0,
                        "script": "00140086284f24c6d49977906e01500385d5e7880e05",
                        "sequence": 4294967294,
                        "txDetail": {
                            "n": 0,
                            "satoshi": 49720584233,
                            "scriptPubKey": {
                                "addresses": [
                                    "2N4fUuW4R8a6JWPGtCJDVBWoyVxQDneHDkH"
                                ],
                                "asm": "OP_HASH160 7d3fd1ba39f93ec4bcab424311aadbf1c7e5eed2 OP_EQUAL",
                                "hex": "a9147d3fd1ba39f93ec4bcab424311aadbf1c7e5eed287"
                            },
                            "value": "497.20584233"
                        },
                        "txid": "3241ec09ec903f19cc65b8eab6eb07681d2469607c18427b2831b42309ad9f61"
                    }
                ],
                "locktime": 1576359,
                "outputs": [
                    {
                        "n": 0,
                        "satoshi": 49720497431,
                        "scriptPubKey": {
                            "addresses": [
                                "2NDT5LuFFNR4neLzftXZdF5pmuTdaX6sN7c"
                            ],
                            "asm": "OP_HASH160 dda04a87a7612e12208ab26f11aab7f340189257 OP_EQUAL",
                            "hex": "a914dda04a87a7612e12208ab26f11aab7f34018925787"
                        },
                        "value": "497.20497431"
                    },
                    {
                        "n": 1,
                        "satoshi": 70000,
                        "scriptPubKey": {
                            "addresses": [
                                "2MzEmGnjDd7uK1WoGK28CpYRzy2VYyBEFJY"
                            ],
                            "asm": "OP_HASH160 4cb2945ecee57784b9d19d4ca18ca5957aa0cace OP_EQUAL",
                            "hex": "a9144cb2945ecee57784b9d19d4ca18ca5957aa0cace87"
                        },
                        "value": "0.00070000"
                    }
                ],
                "txid": "3a9bb3052c14eb3f3060bdfd502ad0ba45f876097d464c377c11acd24c6e196a",
                "version": 2
            },
            "tx_raw": "02000000000101619fad0923b431287b42187c6069241d6807ebb6eab865cc193f90ec09ec413200000000171600140086284f24c6d49977906e01500385d5e7880e05feffffff02179592930b00000017a914dda04a87a7612e12208ab26f11aab7f34018925787701101000000000017a9144cb2945ecee57784b9d19d4ca18ca5957aa0cace870247304402202f64ee3268ac9b64200dc5400a421f25f97c987c1885119d133d579f0e720bb302203c91d5f49ad9394abd446df260388c19fad3317c713d78d612c1139cbcc03c39012103d97cf07d372845a65e56ca5c9be84f7e0d6d87da74e25c18c6b6d36046c2a1b5a70d1800"
        },
        {
            "block": {
                "bits": 486604799,
                "block_height": 1576360,
                "merkle_root": "c655d81f85e7e7549b76dae4edb0af585c3506fa07804d4f65161690ea597fa3",
                "nonce": 3776351708,
                "prev_block_hash": "0000000028969192da5d5b51b9eba37cb743a5c209f7b7f86a231852cea3edb5",
                "timestamp": 1567083852,
                "version": 536870912
            },
            "confirmations": 7,
            "feeSatoshi": 16802,
            "height": 1576360,
            "inputTotalSatoshi": 49720671035,
            "outputTotalSatoshi": 49720654233,
            "timestamp": 1567083852,
            "tx": {
                "inputs": [
                    {
                        "n": 0,
                        "script": "00146920d520e95e158e1c38316928b9225589784359",
                        "sequence": 4294967294,
                        "txDetail": {
                            "n": 0,
                            "satoshi": 49720671035,
                            "scriptPubKey": {
                                "addresses": [
                                    "2Mx8bejrg4ESsAfS7E3YFCAfR7wqnfRq9kH"
                                ],
                                "asm": "OP_HASH160 3597ccf263446c1c298574489d02db046b777dce OP_EQUAL",
                                "hex": "a9143597ccf263446c1c298574489d02db046b777dce87"
                            },
                            "value": "497.20671035"
                        },
                        "txid": "4daf54b4576f06a47cb3c35818deaddf1d3da11a24c617d3b1d344883c354c22"
                    }
                ],
                "locktime": 1576359,
                "outputs": [
                    {
                        "n": 0,
                        "satoshi": 49720584233,
                        "scriptPubKey": {
                            "addresses": [
                                "2N4fUuW4R8a6JWPGtCJDVBWoyVxQDneHDkH"
                            ],
                            "asm": "OP_HASH160 7d3fd1ba39f93ec4bcab424311aadbf1c7e5eed2 OP_EQUAL",
                            "hex": "a9147d3fd1ba39f93ec4bcab424311aadbf1c7e5eed287"
                        },
                        "value": "497.20584233"
                    },
                    {
                        "n": 1,
                        "satoshi": 70000,
                        "scriptPubKey": {
                            "addresses": [
                                "2N2rvdgFkjdRsA3m4VE3pytNFDgzUn5sCXV"
                            ],
                            "asm": "OP_HASH160 69799e8520bc3046e99befb9672afbb86a86e6cb OP_EQUAL",
                            "hex": "a91469799e8520bc3046e99befb9672afbb86a86e6cb87"
                        },
                        "value": "0.00070000"
                    }
                ],
                "txid": "3241ec09ec903f19cc65b8eab6eb07681d2469607c18427b2831b42309ad9f61",
                "version": 2
            },
            "tx_raw": "02000000000101224c353c8844d3b1d317c6241aa13d1ddfadde1858c3b37ca4066f57b454af4d00000000171600146920d520e95e158e1c38316928b9225589784359feffffff0229e893930b00000017a9147d3fd1ba39f93ec4bcab424311aadbf1c7e5eed287701101000000000017a91469799e8520bc3046e99befb9672afbb86a86e6cb8702473044022028d5007eaa861ecbd740f2cea5aad91e0e398fe1b2aa52c8bb66afe74154366b02203dc9c42c9bf9cbab758f9ba3632c016b3845aae968cf3e69b5c0f1b02919ecb5012103327d79f4c0732d3ecb5759910c73e1921b077b0e7973a492ccef4585c819285ba70d1800"
        }
    ],
    "links": {},
    "meta": {
        "count": 2,
        "offset": 0,
        "total": 2
    }
}
